{
  "address": "0x03CBe3B3A870CCFBDb810DC790C1634037b8Cb82",
  "abi": [
    {
      "inputs": [
        {
          "internalType": "contract IInputBox",
          "name": "inputBox",
          "type": "address"
        }
      ],
      "stateMutability": "nonpayable",
      "type": "constructor"
    },
    {
      "inputs": [],
      "name": "getInputBox",
      "outputs": [
        {
          "internalType": "contract IInputBox",
          "name": "",
          "type": "address"
        }
      ],
      "stateMutability": "view",
      "type": "function"
    },
    {
      "inputs": [
        {
          "internalType": "address",
          "name": "appContract",
          "type": "address"
        }
      ],
      "name": "sendVersionedBlobHashes",
      "outputs": [],
      "stateMutability": "nonpayable",
      "type": "function"
    },
    {
      "inputs": [
        {
          "internalType": "bytes4",
          "name": "interfaceId",
          "type": "bytes4"
        }
      ],
      "name": "supportsInterface",
      "outputs": [
        {
          "internalType": "bool",
          "name": "",
          "type": "bool"
        }
      ],
      "stateMutability": "view",
      "type": "function"
    }
  ],
  "args": [
    "0x58Df21fE097d4bE5dCf61e01d9ea3f6B81c2E1dB"
  ],
  "numDeployments": 1,
  "solcInputHash": "59055bee70320b413fd2a802404c1af9",
  "bytecode": "0x60a060405234801561000f575f80fd5b506040516103ed3803806103ed83398101604081905261002e9161003f565b6001600160a01b031660805261006c565b5f6020828403121561004f575f80fd5b81516001600160a01b0381168114610065575f80fd5b9392505050565b60805161036361008a5f395f8181604f015261016b01526103635ff3fe608060405234801561000f575f80fd5b506004361061003e575f3560e01c8062aace9a1461004257806301ffc9a71461007e5780632dad59a2146100a1575b5f80fd5b6040516001600160a01b037f00000000000000000000000000000000000000000000000000000000000000001681526020015b60405180910390f35b61009161008c36600461021a565b6100b6565b6040519015158152602001610075565b6100b46100af366004610248565b6100e0565b005b5f6001600160e01b031982166316d6acd160e11b14806100da57506100da826101e7565b92915050565b604080513360601b6bffffffffffffffffffffffff191660208201528151601481830301815260349091019091525f5b80498061011d5750610153565b8281604051602001610130929190610290565b6040516020818303038152906040529250508061014c906102b1565b9050610110565b50604051631789cd6360e01b81526001600160a01b037f00000000000000000000000000000000000000000000000000000000000000001690631789cd63906101a290859085906004016102d5565b6020604051808303815f875af11580156101be573d5f803e3d5ffd5b505050506040513d601f19601f820116820180604052508101906101e29190610316565b505050565b5f6001600160e01b031982166255674d60e11b14806100da57506301ffc9a760e01b6001600160e01b03198316146100da565b5f6020828403121561022a575f80fd5b81356001600160e01b031981168114610241575f80fd5b9392505050565b5f60208284031215610258575f80fd5b81356001600160a01b0381168114610241575f80fd5b5f5b83811015610288578181015183820152602001610270565b50505f910152565b5f83516102a181846020880161026e565b9190910191825250602001919050565b5f600182016102ce57634e487b7160e01b5f52601160045260245ffd5b5060010190565b60018060a01b0383168152604060208201525f825180604084015261030181606085016020870161026e565b601f01601f1916919091016060019392505050565b5f60208284031215610326575f80fd5b505191905056fea26469706673582212202d7a812279500d5b11cfc987766df70eb42b1c15ccb20425f20b81e0e23dc34e64736f6c63430008180033",
  "devdoc": {
    "kind": "dev",
    "methods": {
      "constructor": {
        "params": {
          "inputBox": "The input box used by the portal"
        }
      },
      "getInputBox()": {
        "returns": {
          "_0": "The input box"
        }
      },
      "sendVersionedBlobHashes(address)": {
        "details": "The input format is the following: message sender address (20 bytes), followed by `n` versioned blob hashes (32 bytes each), in the same order as they appear in the transaction.",
        "params": {
          "appContract": "The application contract address"
        }
      },
      "supportsInterface(bytes4)": {
        "details": "Returns true if this contract implements the interface defined by `interfaceId`. See the corresponding https://eips.ethereum.org/EIPS/eip-165#how-interfaces-are-identified[EIP section] to learn more about how these ids are created. This function call must use less than 30 000 gas."
      }
    },
    "version": 1
  },
  "userdoc": {
    "kind": "user",
    "methods": {
      "constructor": {
        "notice": "Constructs the portal."
      },
      "getInputBox()": {
        "notice": "Get the input box used by this portal."
      },
      "sendVersionedBlobHashes(address)": {
        "notice": "Adds an input with the versioned hashes of all the blobs contained in the current transaction, obtained via the `BLOBHASH` opcode (introduced by EIP-4844)."
      }
    },
    "version": 1
  },
  "storageLayout": {
    "storage": [],
    "types": null
  }
}